:020000000D28C9
:10000800DE00030E8312AE000A08AF005F08B000DE
:100018001D280E28B221BC00B101B201B301B40100
:10002800B501B601B701B801B901BA01BB01830135
:1000380096290130DF005F08BB0702303B06031D2D
:1000480026282728FE28BB019F149F182C282D2816
:1000580029281E08B80083161E088312B70000302E
:10006800A6000430A7003808A1003708A0003230E5
:10007800A2000030A300702183122108A9002008E3
:10008800A800082183122708B6002608B5003C03FB
:10009800031D4F285028BD28BC010130BA00B90102
:1000A80000303602283003193502031C5C285D280D
:1000B8006A280430B3000030B4003508D83EB100D7
:1000C80036080318013EFF3EB200B228003036025F
:1000D8001E3003193502031C722873288028033048
:1000E800B3000030B4003508E23EB100360803180A
:1000F800013EFF3EB200B228003036021430031928
:100108003502031C8828892896280230B30000305D
:10011800B4003508EC3EB10036080318013EFF3E36
:10012800B200B228003036020A3003193502031C27
:100138009E289F28AC280130B3000030B400350851
:10014800F63EB10036080318013EFF3EB200B22861
:10015800B301B4013608B2003508B1000310330DFD
:10016800B300340DB4000310310DB100320DB200EC
:10017800FE283A03031DC128C228DD280130850660
:100188003408803ADF0080305F02031DCD2801303B
:1001980033020318D028D128D5288312BA01013098
:1001A800B900FF308312B3070318B40AFF30B4074D
:1001B800FE283903031DE128E228FE2802308506BF
:1001C8003208803ADF0080305F02031DED280130DD
:1001D80031020318F028F128F6288312BA01B90170
:1001E8000130BC00FF308312B1070318B20AFF3098
:1001F800B207FE280B11810130082F088A002E0E45
:100208008300DE0E5E0E09008312AB01A71F0D29C5
:100218000E291529A609A709A60A0319A70AAB01D9
:10022800AB0AA91F182919292229A809A909A80A66
:100238000319A90A0130DF005F08AB06AC01AD0164
:1002480026082704031929292A296129AA01AA0AA3
:10025800382901300310A60DA70DFF3E031D2E29D6
:100268000130DF005F08AA07A71F3B293C292D2979
:1002780001300310AC0DAD0DFF3E031D3D292708CD
:100288002902031D492926082802031C4C294D2947
:1002980054292608A8022708031CA903A9022C141C
:1002A80001300310A70CA60CFF3E031D5529013091
:1002B800AA02031D602961293C292B080319652915
:1002C80066296B29AC09AD09AC0A0319AD0A2D08DA
:1002D800A7002C08A60008008312A401A501201C71
:1002E800762977297D292208A4070318A50A230857
:1002F800A50701300310A20DA30DFF3E031D7E29A3
:1003080001300310A10CA00CFF3E031D8529200815
:100318002104031D9029912973292508A100240887
:10032800A000080014308316850007308312990056
:100338001C3083169F00093083129F001F148316F8
:10034800950183128101FF30831690008730810068
:0E035800E0308B0083128514B0290D2801348B
:02400E008431FB
:00000001FF
