:020000000D28C9
:10000800DE00030E8312AE000A08AF005F08B000DE
:100018001D280E28CD21BE00B301B401B501B601DB
:10002800B701B801B901BA01BB01BC01BD01830127
:10003800B3290130DF005F08BB0704303B06031D0E
:10004800262827281A29BB013E03031D2C282D2802
:10005800CF28BE010130BA00B9019F149F18352876
:10006800362832281E08BD0083161E088312BC00DD
:100078000030A6000430A7003D08A1003C08A000FD
:100088000530A2000030A3008D2183122108A900A9
:100098002008A800252183122708B2002608B100ED
:1000A8003208A1003108A000EC30A200FF30A30004
:1000B8008D21831220084B3EB70021080318013E0A
:1000C800003EB80000303802283003193702031CFC
:1000D8006E286F287C280430B5000030B600370839
:1000E800D83EB30038080318013EFF3EB400C428C8
:1000F800003038021E3003193702031C8428852873
:1001080092280330B5000030B6003708E23EB3004D
:1001180038080318013EFF3EB400C42800303802F6
:10012800143003193702031C9A289B28A828023088
:10013800B5000030B6003708EC3EB30038080318A5
:10014800013EFF3EB400C428003038020A300319CB
:100158003702031CB028B128BE280130B500003092
:10016800B6003708F63EB30038080318013EFF3ED4
:10017800B400C428B501B6013808B4003708B30084
:100188000310350DB500360DB6000310330DB3005E
:10019800340DB4001A293A03031DD328D428F428AF
:1001A800FF30B5070318B60AFF30B6078510051CDF
:1001B800DE28DF28E1280510E22805143608803AF1
:1001C800DF0080305F02031DEB2801303502031881
:1001D800EE28EF281A298312BA010130B9001A292A
:1001E8003903031DF828F9281A290510FF30B30729
:1001F8000318B40AFF30B407851C0329042906290B
:100208008510072985143408803ADF0080305F02A2
:10021800031D1029013033020318132914291A2940
:100228008312BA01B9010130BE001A290B118312D9
:10023800810130082F088A002E0E8300DE0E5E0E24
:1002480009008312AB01A71F2A292B293229A609E5
:10025800A709A60A0319A70AAB01AB0AA91F3529E2
:1002680036293F29A809A909A80A0319A90A0130AA
:10027800DF005F08AB06AC01AD01260827040319AF
:10028800462947297E29AA01AA0A552901300310BF
:10029800A60DA70DFF3E031D4B290130DF005F08A7
:1002A800AA07A71F582959294A2901300310AC0D5C
:1002B800AD0DFF3E031D5A2927082902031D662993
:1002C80026082802031C69296A2971292608A80218
:1002D8002708031CA903A9022C1401300310A70C3A
:1002E800A60CFF3E031D72290130AA02031D7D29B9
:1002F8007E2959292B080319822983298829AC09C1
:10030800AD09AC0A0319AD0A2D08A7002C08A600F0
:1003180008008312A401A501201C932994299A2975
:100328002208A4070318A50A2308A507013003100B
:10033800A20DA30DFF3E031D9B2901300310A10C44
:10034800A00CFF3E031DA22920082104031DAD298E
:10035800AE2990292508A1002408A000080014301F
:10036800831685000730831299001C3083169F007E
:10037800893083129F001F1483169501831281010F
:10038800FF308316900087308100E0308B00CB2946
:040398000D280134F7
:02400E008431FB
:00000001FF
