:020000000D28C9
:10000800DE00030E8312C4000A08C5005F08C6009C
:1000180017280E282E23DC0083134D3084005C3013
:10002800262383010C2B0130DB0704305B06031DFC
:100038001E281F28BE29DB015C03031D2428252850
:100048007329DC010130DA00D9019F149F182D288B
:100058002E282A281E08D80083161E088312D700C7
:100068000030B0000030AF000330AE00FF30AD000C
:100078005708A0005808A1000030A11BFF30A200BB
:10008800A3000030A7000030A6000C30A500E43023
:10009800A400C52283122308B4002208B300210853
:1000A800B2002008B100C92183122E08CC002D0807
:1000B800CB004B08AD004C08AE000030AE1BFF3043
:1000C800AF00B0004B08BC004C08BD000030BD1BA1
:1000D800FF30BE00BF00E430C0000C30C10000306B
:1000E800C2000030C3003C08C0023D08031C3D0F9D
:1000F8007E287F28C1023E08031C3E0F84288528DD
:10010800C2023F08031C3F0F8A288B28C3024308FA
:10011800A3004208A2004108A1004008A000003046
:10012800A7000030A6002730A5001030A400C52283
:1001380083122308B4002208B3002108B200200863
:10014800B100C92183122E08C8002D08C70000304D
:10015800B0000030AF000330AE008730AD00470874
:10016800BC004808BD000030BD1BFF30BE00BF000A
:100178001030C000BD30C1000030C2000030C300E4
:100188003C08C0023D08031C3D0FCB28CC28C10207
:100198003E08031C3E0FD128D228C2023F08031C88
:1001A8003F0FD728D828C3024308A3004208A2005B
:1001B8004108A1004008A0000030A7000030A600B8
:1001C8000030A5006430A400C52283122308B400BF
:1001D8002208B3002108B2002008B100C921831207
:1001E8002E08CA002D08C9006430A0000030A10004
:1001F8004A08A3004908A200612283122008EC3EA5
:10020800D50021080318013EFF3ED60000305602F3
:10021800283003195502031C1229132920290430F8
:10022800D3000030D4005508D83ED1005608031832
:10023800013EFF3ED2006829003056021E300319E5
:100248005502031C2829292936290330D3000030F8
:10025800D4005508E23ED10056080318013EFF3E7F
:10026800D200682900305602143003195502031CC5
:100278003E293F294C290230D3000030D4005508CC
:10028800EC3ED10056080318013EFF3ED200682913
:10029800003056020A3003195502031C5429552907
:1002A80062290130D3000030D4005508F63ED10051
:1002B80056080318013EFF3ED2006829D301D40135
:1002C8005608D2005508D1000310530DD300540D21
:1002D800D4000310510DD100520DD200BE295A038B
:1002E800031D772978299829FF30D3070318D40AE2
:1002F800FF30D4078510051C82298329852905101C
:10030800862905145408803ADF0080305F02031DF7
:100318008F2901305302031892299329BE29831289
:10032800DA010130D900BE295903031D9C299D29F2
:10033800BE290510FF30D1070318D20AFF30D207B3
:10034800851CA729A829AA298510AB298514520834
:10035800803ADF0080305F02031DB429013051026A
:100368000318B729B829BE298312DA01D901013047
:10037800DC00BE290B1183128101460845088A005A
:10038800440E8300DE0E5E0E09008312B701B01F13
:10039800CE29CF29DC29AD09AE09AF09B009AD0ACC
:1003A8000319AE0A0319AF0A0319B00A0130B700DE
:1003B800B41FDF29E029ED29B109B209B309B4094D
:1003C800B10A0319B20A0319B30A0319B40A0130AE
:1003D800B7060030BB000030BA000030B90000306A
:1003E800B80030082F042E042D040319FC29FD2918
:1003F800482A0130B6000B2A0130B5000310AD0DB4
:10040800AE0DAF0DB00DB50B022A0130B607B01F07
:100418000E2A0F2A002A0130B5000310B80DB90DB5
:10042800BA0DBB0DB50B112A30083402031D262A5C
:100438002F083302031D262A2E083202031D262AFE
:100448002D083102031C292A2A2A392A2D08B1022B
:100458002E08031C2E0FB2022F08031C2F0FB30205
:100468003008031C300FB402381401300310B00CEC
:10047800AF0CAE0CAD0CFF3E031D3A2A0130B6029C
:10048800031D472A482A0F2A370803194C2A4D2AE0
:10049800582AB809B909BA09BB09B80A0319B90A27
:1004A8000319BA0A0319BB0A3B08B0003A08AF009F
:1004B8003908AE003808AD0008008312A501A11F55
:1004C800662A672A6E2AA009A109A00A0319A10AA7
:1004D8000130A500A31F712A722A792AA209A3094B
:1004E800A20A0319A30A0130A506A601A70120083C
:1004F80021040319802A812AB62A0130A4008D2AF2
:1005080001300310A00DA10DFF3E031D852A013007
:10051800A407A11F902A912A842A01300310A60D4E
:10052800A70DFF3E031D922A21082302031D9E2AC0
:1005380020082202031CA12AA22AA92A2008A20212
:100548002108031CA303A302261401300310A10CE5
:10055800A00CFF3E031DAA2A0130A402031DB52AE0
:10056800B62A912A25080319BA2ABB2AC02AA6093D
:10057800A709A60A0319A70A2708A1002608A000A8
:10058800080000308312AC000030AB000030AA0035
:100598000030A900201CD12AD22AE92A2408A90758
:1005A800250803110318013E0319DB2AAA072608A8
:1005B80003110318013E0319E22AAB0727080311A8
:1005C8000318013E0319E92AAC070130A8000310FB
:1005D800A40DA50DA60DA70DA80BEB2A013003103D
:1005E800A30CA20CA10CA00CFF3E031DF32A2308A8
:1005F800220421042004031D022B032BCE2A2C08DD
:10060800A3002B08A2002A08A1002908A0000800BE
:100618001430831685000730831299001C30831626
:100628009F00893083129F001F148316950183123F
:100638008101FF308316900087308100E0308B0005
:10064800242B0D2864008001840A04060319003451
:060658000406272B01340B
:02400E008431FB
:00000001FF
